:100000000C9474170C94A5170C94A5170C94A517B1
:100010000C94A5170C94A5170C94A5170C94A51770
:100020000C94A5170C94A5170C94A5170C94A51760
:100030000C94A5170C94A5170C94A5170C94A51750
:100040000C94A5170C944AA70C94A5170C94A5170B
:100050000C94A5170C94A5170C94628D0C94FFD4E6
:100060000C94A5170C9420420C9416420C94A517DE
:100070000C94A5170C94A5170C94A5170C94A51710
:100080000C94A5170C94A5170C94A5170C94A51700
:100090000C94A5170C94A5170C94A5170C94A517F0
:1000A0000C94A5170C94A5170C94A5170C94A517E0
:1000B0000C94A5170C94A5170C94A5170C94A517D0
:1000C0000C94A5170C94A5170C94A5170C94B53A8D
:1000D0000C94803A0C94A5170C94A5170C94A517B2
:1000E0000C94A517063F0B3F103F1A3F243F9D3F3E
:1000F0002E3F363F3E3F483F523F5C3F6B3F753F90
:100100009D3F7F3F893F933F7C4C904C694C904C86
:10011000724C904C7C4C904C694C904C724C904C76
:10012000904C904C904C904C7C4C904C694C904C2A
:10013000724CE88BAA8CAF8CC28CC78CDA8CE68CA4
:10014000D88BF58F1390E28F1390EB8F1390F58F70
:100150001390E28F1390EB8F1390139013901390E2
:100160001390F58F1390E28F1390EB8F6AD46DD4B8
:100170005CD460D464D4A4D471D475D47BD47FD43B
:1001800083D489D48DD491D4A4D497D49BD49FD430
:10019000084AD73B3BCE016E84BCBFFDC12F3D6CEE
:1001A00074319ABD56833DDA3D00C77F11BED9E454
:1001B000BB4C3E916BAAAABE000000803F05A84C34
:1001C000CDB2D44EB93836A9020C50B99186880800
:1001D0003CA6AAAA2ABE000000803F000C94354D20
:1001E0000C941A900C94C6DC0C94B44C0C94BE95F0
:1001F0000C9499450C94AF8C0C94103F0C948DD4B6
:100200000C942F430C94CF420C942E3F0C94A28E4E
:100210000C94523F0C94EB920C94E4DC0C94FB4B4A
:100220000C949D3F0C941A3F0C94084E0C949FD450
:100230000C9494430C94FDD70C94E28F0C94243FBF
:100240000C94FA420C947BD40C947FD40C94F14F10
:100250000C948F4B0C941D490C94EB8F0C944150D3
:100260000C946AD40C9467420C947F5A0C94854980
:100270000C94C28C0C947B4B0C9491420C940044D3
:100280000C94394B0C94AC8F0C9413900C948F42BB
:100290000C94904C0C94724C0C94483F0C94D245A6
:1002A0000C94EA940C94363F0C9489D40C949042AC
:1002B0000C9460D40C94063F0C941F8E0C94018E09
:1002C0000C9483D40C94AB4C0C943C4E0C94405A3C
:1002D0000C948F4D0C945C3F0C947F3F0C946B3FBF
:1002E0000C94784E0C94B25A0C946DD40C945CD44B
:1002F0000C94A4D40C944B4A0C94744E0C94F58F2B
:100300000C9491D40C94644D0C94D88B0C94644B45
:100310000C949BD40C94DF4A0C94753F0C94C78CBE
:100320000C94AA8C0C94E88B0C942E4C0C9475D4E1
:100330000C94EA480C940B3F0C94EC450C9471D44B
:100340000C949B4C0C94195A0C945B8E0C94049650
:100350000C940D4B0C9464D40C94694C0C94468F03
:100360000C943D8E0C94AB450C94EF8D0C947C4C0E
:100370000C947C440C94AE930C94644F0C94E68CD7
:100380000C9417430C94D24D0C94B4420C9497D413
:100390000C94F35A0C94E3440C94893F0C941694F7
:1003A0000C943E3F0C94724B0C94933F0C94798EBA
:1003B0000C94A24A0C94474C0C9451450C94738FA6
:1003C0000C94D3490C94B48E0C945E470C94954ACB
:1003D0000C9484450C94DA8C4E414E494E49545944
:1003E000494E46CDCCCC3D0AD7233C17B7D1387700
:1003F000CC2B329595E6241FB14F0A000020410016
:1004000000C84200401C4620BCBE4CCA1B0E5AAE5F
:10041000C59D7400407A10F35A00A0724E1809006E
:1004200010A5D4E80000E87648170000E40B540259
:100430000000CA9A3B000000E1F505000080969894
:1004400000000040420F000000A0860100000010E4
:100450002700000000E80300000000640000000026
:10046000000A00000000000100000000002C76D807
:1004700088DC674F0823DFC1DFAE59E1B1B796E5ED
:10048000E3E453C63AE651997696E8E6C28426EB51
:10049000898C9B62ED407C6FFCEFBC9C9F40F2BA64
:1004A000A56FA5F490055A2AF75C936B6CF9676DFC
:1004B000C11BFCE0E40D47FEF520E6B500D0ED9051
:1004C0002E0300943577050080841E080000204E1E
:1004D0000A000000C80C333333330F986E128311B7
:1004E00041EF8D2114893BE65516CFFEE6DB18D18E
:1004F000844B381BF77C1D901DA4BBE42420328460
:10050000725E228100C9F124ECA1E53D27434F4DE5
:100510004D554E49434154494F4E0044525952554E
:100520004E004552524F525300494E464F004543EC
:10053000484F00536C6565702E2E2E005A20507265
:100540006F62652050617374204265640A005A200E
:1005500050726F6265205061737420426564005070
:10056000726F62696E67204661696C65640A00504B
:10057000726F62696E67204661696C656400205A1B
:100580003A200020593A200042656420583A200061
:10059000436C69636B20746F20526573756D652EB3
:1005A0002E2E004E6F204D6F76652E00456E642016
:1005B00066696C65206C6973740A00426567696ED0
:1005C0002066696C65206C6973740A004E6F206D3B
:1005D000656469610A00286E6F2066696C65290090
:1005E00043757272656E742066696C653A200053BB
:1005F00044207072696E74696E6720627974652038
:10060000004E6F74205344207072696E74696E6777
:100610000A002569792025696420256968202569F3
:100620006D20256973005072696E742074696D6560
:100630003A20006F66660044454255473A004D3106
:1006400031322053687574646F776E004D313133E9
:100650002053003344205072696E746572204F46F7
:10066000462E004348414D4245525F54454D50454A
:1006700052415455524500424142595354455050FD
:10068000494E470041524353004D4F54494F4E5F2E
:100690004D4F44455300544845524D414C5F5052D4
:1006A0004F54454354494F4E004C4F4E475F4649C7
:1006B0004C454E414D45004155544F5245504F52C7
:1006C000545F53445F535441545553005344434182
:1006D00052440050524F4D50545F535550504F525A
:1006E0005400454D455247454E43595F5041525382
:1006F000455200434153455F4C494748545F42527D
:10070000494748544E45535300544F47474C455F63
:100710004C494748545300534F4654574152455F44
:10072000504F574552004255494C445F5045524343
:10073000454E54004C4556454C494E475F44415444
:1007400041005A5F50524F42450052554E4F55544A
:10075000004155544F4C4556454C005052494E545B
:100760005F4A4F420050524F475245535300415544
:10077000544F5245504F52545F54454D5000564FC0
:100780004C554D455452494300454550524F4D003C
:1007900042494E4152595F46494C455F5452414E81
:1007A000534645520053455249414C5F584F4E5FA6
:1007B000584F4646004649524D574152455F4E41BB
:1007C0004D453A4D61726C696E2062756766697855
:1007D0002D322E302E78202844656320323420328A
:1007E0003032302031373A32393A35372920534FB9
:1007F000555243455F434F44455F55524C3A6874E8
:100800007470733A2F2F6769746875622E636F6D09
:100810002F4D61726C696E4669726D776172652FDA
:100820004D61726C696E2050524F544F434F4C5F74
:1008300056455253494F4E3A312E30204D41434890
:10084000494E455F545950453A3344205072696EC1
:100850007465722045585452554445525F434F5574
:100860004E543A3220555549443A636564653261C5
:1008700032662D343161322D343734382D396231BE
:10088000322D6335356336326633363766660A0095
:100890002F2F2000416363656C65726174696F6E10
:1008A0003A2050003F4A206F7574206F66207261B5
:1008B0006E67652028302E303120746F20302E3343
:1008C000290A0020204D61783A200020204D696ED1
:1008D0003A2000536F667420656E6473746F707392
:1008E0003A200046523A0020466C6F773A20004288
:1008F00061627973746570205A0020643A0020693F
:100900003A0020703A006469730043290A0061626A
:100910006C656420286D696E2074656D70200043DD
:100920006F6C64206578747275646573206172659C
:1009300020004F666673657473204170706C696542
:1009400064004572723A20546F6F20666172210014
:10095000546F6F206661722066726F6D20726566DB
:100960006572656E636520706F696E740A00454537
:1009700050524F4D204F4B0A003F5A206F75742044
:100980006F662072616E67652028003F59206F7581
:1009900074206F662072616E676520282D002074B8
:1009A0006F20003F58206F7574206F662072616E53
:1009B000676520282D0050726F6265204F66667350
:1009C0006574205800506F7765722D6C6F737320BB
:1009D0007265636F766572792000446F6E65207072
:1009E00072696E74696E672066696C650A004D37BE
:1009F00037004D3331002E05290522051B050D0555
:100A00004572726F722077726974696E6720746FB5
:100A100020454550524F4D210A004D343130004D94
:100A2000313132004D3130380053544F505045442D
:100A30002E20005072696E7465722073746F70702E
:100A400065642064756520746F206572726F7273BF
:100A50002E2046697820746865206572726F722056
:100A6000616E6420757365204D39393920746F20AB
:100A7000726573746172742E202854656D7065728E
:100A800061747572652069732072657365742E20B8
:100A90005365742069742061667465722072657391
:100AA00074617274696E67290A004E6F204368652D
:100AB000636B73756D2077697468206C696E65204F
:100AC0006E756D6265722C204C617374204C696E7A
:100AD000653A2000636865636B73756D206D69739B
:100AE0006D617463682C204C617374204C696E6571
:100AF0003A20004C696E65204E756D626572206902
:100B000073206E6F74204C617374204C696E652085
:100B10004E756D6265722B312C204C617374204CC4
:100B2000696E653A20004D313130005344207265C2
:100B30006164206572726F720A002121204B494C5A
:100B40004C2063617573656420627920746F6F2037
:100B50006D75636820696E61637469766520746978
:100B60006D65202D2063757272656E7420636F6DE4
:100B70006D616E643A2000627573793A2070617518
:100B800073656420666F7220696E7075740A006206
:100B90007573793A2070617573656420666F722091
:100BA000757365720A00627573793A2070726F63AB
:100BB000657373696E670A00534420636172642031
:100BC0006572726F72004D6564696120496E73656C
:100BD00072746564004D656469612052656D6F765D
:100BE0006564004D3130303053006374726C207492
:100BF00075726E206F66660A0A004D696E457874DC
:100C00007275646554656D704368616E67652044F4
:100C1000697374616E63654368616E67650A005A43
:100C20006F66667365742044697374616E636543AF
:100C300068616E67650A000A4D6F766520446973C6
:100C400074616E63654368616E67650A004D353097
:100C500032002067657420666C6F6174206F666671
:100C6000736574203E3E20000A67657420696E74C7
:100C700036206F6666736574203E3E200047312043
:100C80005A2D313000473238205A004731205A312E
:100C90003000473238006D616E6D7620646F6E658E
:100CA0002E0A00473930004730202563257325641C
:100CB0002E25303264204625640047393100206DEE
:100CC0006F7665200073656E64204D3834002068AF
:100CD0006F6D696E6720006D6F766576616C756506
:100CE000203D20005A20486F6D650A005920486F4A
:100CF0006D650A005820486F6D650A00486F6D6584
:100D000020616C6C0A004D6F746F7220556E6C6FB1
:100D1000636B0A005A204D6F76650A0059204D6FAB
:100D200076650A0058204D6F76650A005155455585
:100D300045204C454E3A0048616E646C654D616ECD
:100D400075616C4D6F76650A004D31303030004D65
:100D5000353031004D3530320A4D35303000486184
:100D60006E646C6553657474696E67730A004861DC
:100D70006E646C65537465705065724D4D43686167
:100D80006E6765640A0048616E646C6553746570D3
:100D90005065724D4D457874727564657243686133
:100DA0006E6765640A00323032302D31322D3130B9
:100DB000004D4B53204834335F56312E33300062A0
:100DC00075676669782D322E302E780046696E641C
:100DD0005650566172204E4F5420464F554E442077
:100DE0000046414E2076616C7565206368616E67D0
:100DF000653A0046414E2076616C756520676574E2
:100E00003A002064617461200020444755534C43EC
:100E1000445F53656E6446616E53746174757354B8
:100E20006F446973706C6179200020444755534CBE
:100E300043445F53656E64486561746572537461C1
:100E4000747573546F446973706C617920004162EA
:100E50006F7274696E672E2E2E004E6F204D656482
:100E60006961006E657720746F7066696C652061DA
:100E7000646A75737465643A00546F70206F6620FD
:100E800066696C656C69737420726561636865641A
:100E90000A006E657720746F7066696C6520636107
:100EA0006C63756C617465643A0043616E6E6F7457
:100EB00020656E746572207375626469723A2000F1
:100EC0004D3235005072696E742041626F727465E4
:100ED000640025732563005741524E494E473A201E
:100EE0004E6F2073637265656E204D617070696E20
:100EF0006720666F756E6420666F7220000A20445A
:100F000045425547207461726765740020626163D1
:100F10006B203D20307825780048616E646C654D0B
:100F2000616E75616C457874727564650A00803015
:100F300000000020042008200B20243728372B37FE
:100F400000002224043300000020042008200B208D
:100F50004020442006263034323434343634383499
:100F60003A343C343E3440344234443400000020AF
:100F7000042008200B2040204420062600210000E9
:100F800004200B2044200022022200270827000012
:100F9000001A004A104A00000020042008200B20FC
:100FA000402044200027003702370437000000208B
:100FB000042008200B20402044203C2A402A442AB8
:100FC00000000020042008200B204020442000398D
:100FD0000239043900000020042008200B204020A2
:100FE00044200027004102410441064108410A41D2
:100FF0000C410E4110411241000000200420082045
:101000000B20402044200027482A282A2C2A302A56
:10101000342A382A00000020042008200B20402019
:1010200044200027002A042A082A0C2A102A00003B
:101030000020042008200B20402044200027002905
:1010400004290829102912290000003120314031DB
:1010500060318031A031C031E031003220320000F7
:101060000020042008200B2040204420002730339B
:1010700040330022022208270035023504350033B0
:101080000233043300000020042008200B204020FD
:101090004420002700260426000000200420082009
:1010A0000B20402044200027205000000020042076
:1010B00008200B2040204420002710500000002072
:1010C000042008200B204020442000270000001AA4
:1010D00000000115000002084E000000150000028B
:1010E0003C4E0000031500000241500000101500A6
:1010F0000002F14F00000016000002954A000002B5
:1011000015000002744E00000023000002EC4500B0
:10111000000223000002EC4500000423000002EC62
:101120004500002023000002EC45000036230000AB
:1011300002EC4500003823000002EC4500003A2391
:10114000000002EC4500003423070202B442000014
:101150003023000002EC45000000240000025E473E
:1011600000008016000002AB4500002016000002BF
:1011700091420000001ABF0D100000354D20700094
:1011800000200000AB4C004AB10D100000354D109E
:101190004AA60D100000354D0020551A020000F33C
:1011A0005A0420591A024B4AD24D00227B02028572
:1011B00049D24D06338212020000B25A10230000B9
:1011C00002D34900001040591A02798E00001034F1
:1011D000591A0200000D4B2040000002BE9500008D
:1011E00000375C1A02AC8F474C0237601A02AC8F92
:1011F000474C0437641A02AC8F474C003800000299
:10120000049600000825000002EA9400000B250067
:101210000002169400000026440202738F7F5A04D5
:1012200026420202468FD24D08206C1A020000F3BB
:101230005A0B20701A024B4AD24D02227D020285BF
:1012400049D24D1223000002D34900001240701A07
:1012500002798E00001234701A0200000D4B002635
:10126000440202738F7F5A0426420202468FD24DF7
:101270000238000002049600000425000002AE932C
:10128000EB9240204A1A020000F35A44204E1A0200
:101290004B4AD24D1C404E1A02798E00001C344E2F
:1012A0001A0200000D4B0027451A02A24A644B5057
:1012B00023451A02A28E00001027451A02000039A9
:1012C0004B0827090202195AD24D0033551B020060
:1012D00000B25A0233591B020000B25A04335D1B9C
:1012E000020000B25A00417902025145D24D02413A
:1012F0007702025145D24D04417502025145D24D4B
:1013000006417302025145D24D0841710202514516
:10131000D24D0A416F02025145D24D0C416D02027D
:101320005145D24D0E416B02025145D24D104169DB
:1013300002025145D24D12416702025145D24D3051
:10134000330000020000FB4B40330000200000642B
:101350004D0029261202E3447F5A04292A1202E38F
:10136000447F5A08292E1202E3447F5A002A36127B
:101370000294437F5A042A3A120294437F5A082A5D
:101380003E120294437F5A0C2A4212022F437F5A84
:10139000102A4612022F437F5A282A1212020044B2
:1013A000D24D2C2A1612020044D24D302A1A1202B3
:1013B0000044D24D342A1E12021A90D24D382A22ED
:1013C00012021A90D24D3C2A4E12025B8E7F5A4076
:1013D0002A5212023D8E7F5A442A5612021F8E7FD5
:1013E0005A482A461202018ED24D00396502026720
:1013F00042D24D02396302026742D24D0439610282
:10140000026742D24D06261F0202EF8DD24D2037D1
:10141000000002D2450000202400000284450000A4
:101420008023000002EA4800006030000002994575
:1014300000007030000002CF4200001224000002C1
:101440009042000010240000028F42000022245D20
:101450001B0200008F4D00211F02021743D24D12C4
:1014600038000002FA42000010293212027C447F48
:101470005A12293212027C447F5A20300000026442
:101480004F00002230000002784E0000243000009F
:10149000022E4C000000310000200000B44C20312E
:1014A0000000200000B44C40310000200000B44C8B
:1014B00060310000200000B44C80310000200000AA
:1014C000B44CA0310000200000B44CC0310000201A
:1014D0000000B44CE0310000200000B44C003200A9
:1014E00000200000B44C20320000200000B44C2644
:1014F000300000028F4B000028300000027B4B00C0
:10150000004030000002724B00005030000002B476
:101510008E405A80308C12020000B25A2437BA1919
:10152000021D49B25A2837BE19021D49B25A2B373B
:10153000C219021D49B25A00380000020000DF4AF9
:10154000001100002000009B4C4011000020000012
:101550009B4C801100002000009B4CC0110000201B
:1015600000009B4C00000000020000000000CE10B4
:1015700001BE1002AC10039A100486100B861039BD
:1015800086103D861005BE1006BE100760101A605A
:10159000100F4A1033301037161035FA0F30D60FAF
:1015A00031C20F324A102EBE102FAE0F38980F24C2
:1015B000900F3C800F416E0F46480F49420F1E327C
:1015C0000F40BE10472E0F0000007C3C3E5E2B3DBE
:1015D0003F2F5B5D3B2C2A225C002073656E6420EC
:1015E0003E3E20006F70656E005452494747455299
:1015F0004544007A5F6D696E00795F6D696E0078B1
:101600005F6D696E005265706F7274696E672065F8
:101610006E6473746F70207374617475730A00481C
:101620006F6D652025732573257320466972737469
:1016300000486F6D696E67204661696C65640020C3
:10164000746F6F206C6F6E67206578747275736944
:101650006F6E2070726576656E7465640A00206333
:101660006F6C6420657874727573696F6E20707228
:101670006576656E7465640A00DB0FC93F45BCDAA8
:101680003F8FB30240FCF0274056946140FE4B9BD5
:101690004084A5D840E0231841346A5641E8599760
:1016A0004164DBD5416E271742B4B75542CE1A9735
:1016B00042C8AED542B5885A43D40684BFA65FA7B8
:1016C000BF7443E0BF10B11AC01C2C58C0E8F69795
:1016D000C0B849D6C04E4E17C124D355C1802497F7
:1016E000C1A0B5D5C1121A17C244AE55C27817971A
:1016F000C26CACD5C267885AC3204D39322058001D
:101700005265686561742066696E69736865642EE8
:1017100000526568656174696E672E2E2E004865FB
:10172000617465722054696D656F757400507265DF
:10173000737320627574746F6E20746F20686561B6
:1017400074206E6F7A7A6C650A004E6F7A7A6C65D7
:10175000205061726B6564004C6F61642046696C57
:10176000616D656E7400496E736572742066696C94
:10177000616D656E7420616E642070726573732094
:10178000627574746F6E0A004D32342053256C6498
:101790002054256C64004739322E392045257300CA
:1017A000473120462564004739322E39205A2573A7
:1017B000004731205A30204632303000473120581F
:1017C000257320592573204633303030004D313099
:1017D000362050256920532569004D31303920537A
:1017E0002569005425692053004D31393020532597
:1017F00069004D32303020542569204430004D328C
:101800003030205425692044257300473238523047
:101810005859004739322E39204530205A300A476E
:10182000315A25730020496E76616C6964206578B1
:1018300074727564657220006572726F72207772BF
:101840006974696E6720746F2066696C650A00446C
:101850006F6E6520736176696E672066696C652EB0
:101860000A004D32390042656420436F6F6C696E27
:10187000672E2E2E004265642048656174696E678C
:101880002E2E2E00504944204175746F74756E657C
:10189000206661696C65642120426164206578740A
:1018A0007275646572206E756D6265720A002364DC
:1018B0006566696E652044454641554C545F00504D
:1018C00049442074756E696E6720646F6E650041CF
:1018D00075746F74756E65206661696C656421202E
:1018E00054696D656F75742E004175746F74756EF3
:1018F00065206661696C65642E2054656D70657243
:10190000617475726520746F6F20686967682E0056
:101910004175746F74756E65206661696C65642EBF
:10192000204261642065787472756465722E004B84
:101930006420004B6920004B702000504944204136
:1019400075746F74756E652066696E697368656419
:10195000212050757420746865206C617374204B6D
:10196000702C204B6920616E64204B6420636F6E85
:101970007374616E74732066726F6D2062656C6F34
:101980007720696E746F20436F6E66696775726148
:1019900074696F6E2E680A00504944204175746F57
:1019A00074756E65206661696C6564212074696D6B
:1019B000656F75740A000A20436C61737369632054
:1019C000504944200A00204B643A2000204B693AD9
:1019D0002000204B703A20000A204E6F206F766561
:1019E0007273686F6F740A002054753A2000204BA0
:1019F000753A2000206D61783A2000206D696E3ABA
:101A0000200020643A200020626961733A2000506F
:101A10004944204175746F74756E652073746172EA
:101A2000740A00504944204175746F74756E6520C6
:101A30006661696C6564212054656D7065726174BE
:101A400075726520746F6F20686967680A00504975
:101A500044204175746F74756E6500506C656173D8
:101A60006520636F6E6669726D2E00496E76616CDB
:101A700069642065787472756465720A00457272D3
:101A80003A204D415854454D50004D415854454D14
:101A90005020747269676765726564004572723AB6
:101AA000204D494E54454D50004D494E54454D50E2
:101AB0002074726967676572656400202F0020409A
:101AC000002042403A0020403A0020573A0041634B
:101AD000746976652045787472756465723A200081
:101AE00076616C75655F7365743A0076616C7565D7
:101AF0005F7261773A0048616E646C654D6178533E
:101B0000706565644368616E67655F4D4B530A009D
:101B10004E4F544943450056333A0056323A005628
:101B2000313A00706C6561736520776169740050AB
:101B30004944206973206175746F74756E696E67AE
:101B40000048616E646C655049444175746F7475EA
:101B50006E650A0062616279737465702075700A3F
:101B600000626162797374657020646F776E0A0039
:101B700048616E646C654C69766541646A7573741E
:101B80005A0A0048616E646C6546616E436F6E74FC
:101B9000726F6C0A0048616E646C654865617465BB
:101BA00072436F6E74726F6C0A0048616E646C658C
:101BB000507265686561740A004765742046696CF7
:101BC000616D656E74206C656E2076616C75653A2A
:101BD0000048616E646C6547657446696C616D654B
:101BE0006E740A0046696C616D656E74537065654C
:101BF000642076616C75653A0048616E646C654777
:101C0000657446696C616D656E7453706565640AD0
:101C100000686561742100506C65617365207761AF
:101C20006974206E6F7A7A6C6500556E4C6F6164D2
:101C30002046696C616D656E740A0048616E646C63
:101C40006546696C616D656E744F7074696F6E0A7C
:101C50000048616E646C6546696C616D656E744CBC
:101C60006F6164556E6C6F61640A005365744E65F4
:101C70007753637265656E3A2000506F70546F4FF2
:101C80006C6453637265656E20733D00205570640B
:101C900061746553637265656E565044617461206A
:101CA000646F6E650A002056503A2000204E4F2087
:101CB00053435245454E20464F523A20002055701E
:101CC0006461746553637265656E565044617461F6
:101CD0002053637265656E3A20002056505661723B
:101CE000206E6F7420666F756E643A0020565056F1
:101CF000617220666F756E642C206E6F2068616E55
:101D0000646C65722E0A003E0A0020232000476F93
:101D1000746F53637265656E20004361703A0047CB
:101D2000322F47332062616420706172616D657487
:101D30006572730A00656E7175657565696E6720F9
:101D400022006F6B00526573656E643A2000205369
:101D5000697A653A200043616E6E6F74206F70651A
:101D60006E207375626469722000534420496E6965
:101D700074204661696C0053442063617264206F73
:101D80006B0A006F70656E526F6F74206661696CCC
:101D900065640A00766F6C756D652E696E697420D6
:101DA0006661696C65640A004E6F2053442063616C
:101DB00072640A004D3234004D32332025730046E0
:101DC000696C652073656C65637465640A004669B7
:101DD0006C65206F70656E65643A2000454E442046
:101DE000535542524F5554494E450A002220706FB8
:101DF00073002220706172656E743A22005355425E
:101E0000524F5554494E452043414C4C2074617209
:101E10006765743A220053756263616C6C204F767B
:101E20006572666C6F7700457863656564656420EC
:101E30006D617820535542524F5554494E452064A8
:101E4000657074683A0044656C6574696F6E2066ED
:101E500061696C65642C2046696C653A20004669AE
:101E60006C652064656C657465643A006F70656EBE
:101E7000206661696C65642C2046696C653A2000B7
:101E800057726974696E6720746F2066696C653A71
:101E90002000667265736800646F696E67004E6F3C
:101EA0007720002020506C616E6E65724275666608
:101EB000657242797465733A200020467265652028
:101EC0004D656D6F72793A2000436F6D70696C6576
:101ED000643A2044656320323420323032300A00C4
:101EE000204C61737420557064617465643A2032CB
:101EF0003032302D31322D3130207C2041757468E4
:101F00006F723A20286E6F6E652C2064656661756D
:101F10006C7420636F6E666967290A006275676674
:101F200069782D322E302E780A004D61726C696E00
:101F30000020536F66747761726520526573657413
:101F40000A00205761746368646F67205265736587
:101F5000740A002042726F776E206F75742052658C
:101F60007365740A002045787465726E616C205246
:101F7000657365740A00506F77657255700A006169
:101F800075746F25632E67004732385859004D38F5
:101F900031004D3130303100656E6473746F707391
:101FA000206869743A200070012C0190012701B06B
:101FB000012201C0011D01F00118011002130130BE
:101FC000020E016002090190020401C002FF00003C
:101FD00003FA004003F5008003F000D003EB00207B
:101FE00004E6007004E100E004DC004005D700C016
:101FF00005D2004006CD00D006C8008007C30030DF
:1020000008BE00F008B900C009B400B00AAF00B0C3
:102010000BAA00D00CA500000EA000500F9B00C022
:102020001096005012910000148C00C0158700B06B
:10203000178200B0197D00D01B7800001E7300408D
:10204000206E0090226900F024640040275F009019
:10205000295A00E02B5500102E500020304B001064
:10206000324600E033410090353C001037370070B5
:10207000383200A0392D00B03A2800A03B23006080
:102080003C1E00103D1900903D1400103E0F0070E2
:102090003E0A00C03E0500003F0000403FFBFF80BD
:1020A0003FF6FFC03FF1FF24F4D43050C38E20C26E
:1020B000A24017828B7011127A910D816CD90AA8F7
:1020C00061E108C7586607615143061E4B5D05C1B3
:1020D00045A7041A411104093D98037139310340A1
:1020E00036DB0265339102D4305402802E1D026328
:1020F0002CEE01752AC501B028A001102781018F9F
:102100002564012B244B01E0223401AC211F018DF9
:10211000200D01801FFC00841EED00971DDF00B81C
:102120001CD200E61BC600201BBC00641AB200B221
:1021300019A8000A19A0006A189900D11791004047
:10214000178B00B516840031167E00B31579003A5E
:10215000157300C7146F0058146A00EE13660088E8
:1021600013630025135E00C7125B006C1257001545
:10217000125400C111510070114F0021114B00D6B3
:102180001049008D1047004610440002104200C064
:102190000F4000800F3E00420F3C00060F3B00CB7B
:1021A0000E3800930E37005C0E3500270E3400F316
:1021B0000D3200C10D3100900D3000600D2E003247
:1021C0000D2D00050D2C00D90C2B00AE0C2900851F
:1021D0000C29005C0C2700350C27000E0C2600E8AB
:1021E0000B2400C40B2400A00B23007D0B23005AFA
:1021F0000B2100390B2100180B2000F80A1F00D911
:102200000A1E00BB0A1E009D0A1D00800A1D0063F5
:102210000A1C00470A1B002C0A1B00110A1A00F7AF
:10222000091A00DD091900C4091900AB0919009247
:102230000917007B091800630917004C09160036BE
:10224000091600200916000A091500F5081500E016
:10225000081400CC081400B8081400A40814009056
:102260000813007D0812006B08130058081200467E
:10227000081200340811002308110012081100018F
:10228000081100F0071000E0071000D0071000C090
:10229000071000B0070F00A107100091070E008380
:1022A000070F0074070F0065070E0057070E00495F
:1022B000070E003B070D002E070E0020070D001330
:1022C000070D0006070D00F9060C00ED060D00E0F5
:1022D000060C00D4060C00C8060C00BC060C00B0AE
:1022E000060C00A4060B0099060C008D060B00825C
:1022F000060B0077060B006C060B0061060A005700
:10230000060B004C060A0042060A0038060A002E98
:10231000060A0024060A001A060A00100609000729
:10232000060A00FD050900F4050900EB050900E2B5
:10233000050900D9050900D0050900C7050900BE37
:10234000050900B5050800AD050800A50509009CB4
:10235000050800940508008C050800840508007C29
:10236000050800740508006C050700650508005D98
:10237000050700560508004E050700470507004001
:1023800005080038050700310507002A0507002366
:102390000507001C050600160507000F05070008C5
:1023A00005060002050700FB040600F5040700EE21
:1023B000040600E8040600E2040700DB040600D57A
:1023C000040600CF040600C9040600C3040600BDCD
:1023D000040600B7040600B1040500AC040600A61C
:1023E000040600A00405009B040600950405009067
:1023F0000406008A04050085040500800406007AAE
:1024000004050075040500700405006B04050066F2
:10241000040500610405005C040500570405005232
:102420000405004D04050048040500430405003E72
:102430000404003A04050035040500300404002CAF
:1024400004050027040400230405001E0404001AE8
:1024500004040016040500110404000D040400091E
:102460000405000404040000040400FC030400F854
:10247000030400F4030400F0030400EC030400E888
:10248000030400E4030400E0030400DC030400D8B8
:10249000030400D4030400D0030400CC030400C8E8
:1024A000030300C503030024F404D9201BC40C5CFF
:1024B0000E9804C4095F0265077101F405F900FB79
:1024C00004B30048048700C10369005803550003A2
:1024D000034500BE023A008402310053022A00295B
:1024E00002250004022000E4011C00C8011900AF0D
:1024F000011700980114008401130071011000619C
:1025000001100051010E0043010D0036010B002B9C
:10251000010B0020010B00150109000C010900034B
:10252000010800FB000800F3000800EB000700E4CE
:10253000000600DE000600D8000600D2000600CC2F
:10254000000500C7000500C2000500BD000400B979
:10255000000400B5000400B1000400AD000400A9AF
:10256000000400A5000300A20003009F0004009BDC
:102570000003009800030095000200930003009000
:102580000003008D0002008B00030088000200861B
:1025900000020084000300810002007F0002007D31
:1025A0000002007B00020079000200770001007643
:1025B0000002007400020072000100710002006F4E
:1025C0000002006D0001006C0002006A0001006959
:1025D0000002006700010066000100650001006460
:1025E0000002006200010061000100600001005F64
:1025F0000002005D0001005C0001005B0001005A68
:102600000001005900010058000100570001005668
:102610000001005500010054000100530000005368
:102620000001005200010051000100500001004F64
:102630000001004E0000004E0001004D0001004C62
:102640000001004B0000004B0001004A000100495E
:10265000000100480000004800010047000100465A
:102660000000004600010045000000450001004454
:10267000000100430000004300010042000000424E
:102680000001004100000041000100400001003F46
:102690000000003F0001003E0000003E0001003D40
:1026A0000000003D0001003C0000003C0000003C38
:1026B0000001003B0000003B0001003A0000003A2E
:1026C0000001003900000039000100380000003826
:1026D000000000380001003700000037000100361C
:1026E0000000003600000036000100350000003513
:1026F0000000003500010034000000340000003408
:1027000000010033000000330000003300010032FC
:1027100000000032000000320001003100000031F2
:1027200000000031000100300000003000000030E7
:102730000001002F0000002F0000002F0000002FDC
:102740000001002E0000002E0000002E0001002DD0
:102750000000002D0000002D0000002D0001002CC5
:102760000000002C0000002C0000002C0001002BB9
:102770000000002B0000002B0000002B0001002AAD
:102780000000002A0000002A0000002A00010029A1
:102790000000002900000029000000290000002995
:1027A0000001002800000028000000280000002888
:1027B000000000280001002700000027000000277B
:1027C000000000270000002700010026000000266E
:1027D0000000002600000026000000260001002561
:1027E0000000002500000025000000250000002555
:1027F0000000002500010024000000240000002447
:102800000000002400000024000100230000002339
:10281000000000230000002300000023000000232C
:10282000000000230001002200000022000000221E
:102830000000002200000022000000220001002110
:102840000000002100000021000000210000002104
:1028500000000021000000210001002000000020F5
:1028600000000020000000200000002000000020E8
:1028700000000020000000200001001F0000001FD9
:102880000000001F0000001F0000001F0000001FCC
:102890000000001F0001001E0000001E0000001EBE
:1028A0000000001E000000043700001E2900005137
:1028B0001B00005810000010090000CC0400007834
:1028C000020000410100002062797465733B2063BF
:1028D000726320004E6F20454550524F4D2E0A0026
:1028E000454550524F4D206461746173697A65208B
:1028F0006572726F722E0A002073746F72656420A5
:1029000073657474696E6773207265747269657635
:102910006564202800202863616C63756C617465B0
:102920006429210A0020213D2000454550524F4D89
:1029300020435243206D69736D61746368202D20BC
:102940002873746F726564292000496E6465783A53
:10295000200044494749504F5453204C6F616465EF
:10296000640A0044494749504F5453204C6F6164F6
:10297000696E670A00204D61726C696E3D5638328F
:10298000290A00454550524F4D2076657273696F94
:102990006E206D69736D61746368202845455052DF
:1029A0004F4D3D0000002200250028002B002E0086
:1029B0003100340002010000050108010B01000094
:1029C0002100240027002A002D00300033000101DF
:1029D0000000040107010A010505050507050808AF
:1029E0000808020202020A0A080804040404010199
:1029F00001010101010103030303030303030407AE
:102A000007070C0C0C0C0C0C0C0C02020202060644
:102A10000606060606060B0B0B0B0B0B0B0B010237
:102A200010202008081020401020408002010201E0
:102A30000804020101020408102040808040201098
:102A400008040201800402018040201008040201F1
:102A50000804020101020408102040800102040859
:102A600010204080220A00556E6B6E6F776E2063D7
:102A70006F6D6D616E643A20220020436F756E7435
:102A800020583A00453200453100626564002C2030
:102A900073797374656D2073746F70706564212031
:102AA0004865617465725F49443A20004865617405
:102AB000696E67204661696C656400486561746988
:102AC0006E67206661696C656400544845524D41EB
:102AD0004C2052554E4157415900546865726D6102
:102AE0006C2052756E6177617900000048430000E8
:102AF00048430000164300000000000000000000F2
:102B000000000000484200004842000080400202ED
:102B1000040000A0400000A04000000040FFFFFFB4
:102B20005761726E696E673A20486F6D696E6720F3
:102B300042756D702044697669736F72203C203154
:102B40000A0053657474696E67732053746F7265FD
:102B5000640053657474696E67732053746F726593
:102B600064202800486F74656E64206F6666736524
:102B700074733A00205200454550524F4D20496E23
:102B8000697469616C697A65640A0048617264639A
:102B90006F6465642044656661756C742053657468
:102BA00074696E6773204C6F616465640A003B2032
:102BB000003A0A0020204D3630332000546F6F6CED
:102BC0002D6368616E67696E673A005431204C006E
:102BD0002055005430204C0046696C616D656E7460
:102BE000206C6F61642F756E6C6F6164206C656E14
:102BF000677468733A0020204D3835312058005AE8
:102C00002D50726F6265204F6666736574002020D8
:102C10004D343133205300506F7765722D4C6F73F4
:102C200073205265636F766572793A0020490020FF
:102C3000204D333031205000504944207365747466
:102C4000696E67733A0020204D32313820540020DD
:102C5000204D323036205800486F6D65206F666613
:102C60007365743A00204A0020204D3230352042EE
:102C700000416476616E6365643A20423C6D696E22
:102C80005F7365676D656E745F74696D655F75739D
:102C90003E20533C6D696E5F666565647261746564
:102CA0003E20543C6D696E5F74726176656C5F6640
:102CB000656564726174653E204A3C6A756E635F47
:102CC0006465763E0020204D323034205000416350
:102CD00063656C65726174696F6E2028756E6974C6
:102CE000732F7332293A20503C7072696E745F61A1
:102CF0006363656C3E20523C726574726163745FFD
:102D0000616363656C3E20543C74726176656C5FF0
:102D1000616363656C3E0020204D323031205800E5
:102D20004D6178696D756D20416363656C65726195
:102D300074696F6E2028756E6974732F7332293A27
:102D40000020450020590020204D3230332058000B
:102D50004D6178696D756D20666565647261746535
:102D6000732028756E6974732F73293A0053746544
:102D700070732070657220756E69743A0020204D62
:102D800032303020530020440020204D323030209B
:102D900054002044697361626C65640A0046696C82
:102DA000616D656E742073657474696E67733A0043
:102DB00020286D6D29002020473231202020203B23
:102DC00020556E69747320696E206D6D000000FAE5
:102DD000430000FA430000A0400000C8410000A0EA
:102DE000420000A0420000C8430000B442F40100C9
:102DF00000F401000064000000E803000050726964
:102E00006E742050617573656400452563202553F9
:102E10000020453A00205A3A0020593A0033442015
:102E20005072696E7465722052656164792E00502B
:102E300072696E74696E672E2E2E0000000A0B02F6
:102E4000090C0D0E0807030401000000000000003B
:102E50000000000000000000000000000000000072
:102E6000000000000000001211100000000000002F
:102E70000000000000000000000000000000000052
:102E800000506C6561736520526573657400505223
:102E9000494E5445522048414C544544004B494CFE
:102EA0004C45442E20005072696E74657220686132
:102EB0006C7465642E206B696C6C28292063616CCE
:102EC0006C6564210A006563686F3A004572726F31
:102ED000723A00486F74656E6420746F6F20636F80
:102EE0006C640A00E4DCC6DC11241FBECFEFD1E223
:102EF000DEBFCDBF00E00CBF1AE0A0E0B2E0E2EB25
:102F0000FAED01E00BBF02C007900D92A837B107A0
:102F1000D9F72BE1A8E7BAE001C01D92A437B207A8
:102F2000E1F717E1C3E7D7E100E006C02197010907
:102F3000802FFE010E945CE9C237D10780E00807BC
:102F4000A9F70E9443D80C9447ED0C9400002F92EF
:102F50003F924F925F926F927F928F929F92AF9229
:102F6000BF92CF92DF92EF92FF920F931F93CF9376
:102F7000DF93CDB7DEB7C154D1090FB6F894DEBFE9
:102F80000FBECDBF22968FAF22972091810A219646
:102F90002FAF219781E08093810A809181138D3436
:102FA00009F451C4843511F40C94C128873411F00C
:102FB0000C94E22820917F13309180132531310544
:102FC00011F40C94E42870F42430310530F480912D
:102FD00088142230310520F1FCC02430310509F479
:102FE00004C12DC42E31310509F46EC148F42B31D2
:102FF000310509F439C12C31310509F455C11FC41B
:103000002B35310509F465C32C35310509F466C348
:103010002A35310509F013C41092441A0C94E4289F
:10302000813011F00C94E4280E942F7386E792E11E
:103030000E94095C8091431A83FD8DC02091611B21
:103040003091621B4091631B5091641B609182120E
:103050007091831280918412909185120E9483E274
:10306000882309F478C08091421A81111FC0E09131
:10307000881A37E1E39FF0011124EF5AF54E64817D
:103080007581868197810E94EAEA20911F02309122
:103090002002215031096217730744F40E94F7D6C9
:1030A0008EE596E10E9495D611E001C010E02091D6
:1030B000611B3091621B4091631B5091641B6091B6
:1030C00082127091831280918412909185120E94D5
:1030D0007DE96B017C0120E030E0A9010E94DEEB7C
:1030E00087FF04C0F7FAF094F7F8F094E091881A9B
:1030F00044E0E49FF0011124E95EFD4F208131811D
:1031000042815381C701B6010E94E9E220E030EC20
:1031100049E754E40E94DEEB18163CF40E94F7D60F
:103120008FE396E10E9495D602C01123A1F0809111
:10313000821290918312A0918412B0918512809393
:10314000611B9093621BA093631BB093641B82E886
:1031500092E10E949EC32AE037ED43E25CE3609176
:103160007F027091800280918102909182020E9480
:10317000E9E26B017C016091090270910A02072E5D
:10318000000C880B990B0E948AE29B01AC01C701DD
:10319000B6010E94E9E269837A838B839C83E09085
:1031A000881A8E010F5F1F4F22E832E14EE752E18D
:1031B0006AE772E186E792E10E946AB980E1E6E798
:1031C000F2E1A5E5BBE101900D928A95E1F70C943F
:1031D000E428813011F00C94E4282230310509F004
:1031E00080E00E94E4990C94E42880E50E94DED5FA
:1031F000882329F00E94A6766B017C0103C0C12CB4
:10320000D12C760183E50E94DED5882361F00E94EF
:1032100059D520E030E04AE754E40E94E9E20E94F8
:10322000F1EA6B017C010E94A4C08091CB1981114D
:1032300005C060E083E395E00E948C610E94F3D4B6
:10324000C60ED71EE81EF91E0E94F3D4DC01CB0186
:103250008C199D09AE09BF09B7FD02C00C94E42882
:1032600080E00E940B3CF0CF87E00E94F461811166
:103270000C94E4288CE0E3E8F2E0DE011196019082
:103280000D928A95E1F780E50E94DED5882321F032
:103290000E9449D5862F01C080E0BE016F5F7F4F3D
:1032A0000E94E0600C94E428809186128770873039
:1032B00011F00C94F12860E08FE40E94677B81118B
:1032C0000C94E4280C94F1282091BA193091BB1980
:1032D0004091BC195091BD196091551B7091561BBE
:1032E0008091571B9091581B0E947EE9AB01BC0155
:1032F00088E50E94287C2B013C016C8F7D8F8E8F8E
:103300009F8F2091BE193091BF194091C0195091E3
:10331000C1196091591B70915A1B80915B1B909150
:103320005C1B0E947EE9AB01BC0189E50E94287C00
:103330006CAB7DAB8EAB9FAB68A379A38AA39BA339
:10334000BE01605E7F4FCE014C960E942697882377
:1033500011F40C94E4280E945B5D61E085E40E9416
:10336000677B382E49825A826B827C828CA99DA908
:10337000AEA9BFA98D839E83AF83B887C0905D1B24
:10338000D0905E1BE0905F1BF090601BC986DA86D0
:10339000EB86FC86BE016B5F7F4FCE0101960E94DB
:1033A0002697882309F46CC12091BA193091BB1972
:1033B0004091BC195091BD19C301B2010E947DE931
:1033C0004B015C0169837A838B839C832091BE19B6
:1033D0003091BF194091C0195091C1196CA97DA9B4
:1033E0008EA99FA90E947DE96CAF7DAF8EAF9FAF84
:1033F0006D837E838F8398872091C2193091C31982
:103400004091C4195091C519C701B6010E947DE9C8
:1034100069877A878B879C8720917F023091800211
:10342000409181025091820228AF39AF4AAF5BAF21
:1034300000E010E025E033E400937F021093800267
:1034400020938102309382021CA21DA21EA21FA201
:10345000AE014C5D5F4F6A017B018C012CAD3DAD2F
:103460004EAD5FADC501B4010E948E5D81E00E944A
:10347000E3CC81110C94E82C80917E1482FF11C062
:103480002091C2193091C3194091C4195091C519A6
:1034900060E070E080E090EC0E947DE94B015C010F
:1034A00006C0812C912C90E2A92E91ECB92EC090EF
:1034B000C219D090C319E090C419F090C51920E04A
:1034C00030E0A901C701B6010E9483E287FF0BC06B
:1034D000A701960160E070E080E791E40E947DE939
:1034E0006B017C0106C0C12CD12C80E7E82E81E461
:1034F000F82EA701960160915D1B70915E1B809173
:103500005F1B9091601B0E94DEEB1816ECF5C8AAB9
:10351000D9AAEAAAFBAAC12CD12C00E8E02E00E42B
:10352000F02ECCA6DDA6EEA6FFA6BE01645D7F4F01
:10353000CE01C0960E946D5E109187141092871480
:1035400082E00E94B95E0E94415F12FF1DC0C8A6C2
:10355000D9A6EAA6FBA620E030E040EA50E460915C
:103560005D1B70915E1B80915F1B9091601B0E94A0
:103570007EE96CA37DA38EA39FA3BE01685D7F4FF0
:10358000CE0184960E946D5E88A699A6AAA6BBA6C7
:1035900080E090E0A0E0B0E48CA39DA3AEA3BFA325
:1035A000BE016C5D7F4FCE0188960E946D5E1091CA
:1035B00087141092871482E00E94B95E0E94415FD6
:1035C000C0905D1BD0905E1BE0905F1BF090601B75
:1035D0008090C2199090C319A090C419B090C519D9
:1035E00012FF10C0A501940160E070E080EA90E451
:1035F0000E947DE99B01AC01C701B6010E94DEEB90
:10360000181634F4C12CD12C10ECE12E1FE7F12E4A
:10361000A5019401C701B6010E947EE97B018C01DE
:103620009B01AC010E9470EC811108C051E0351281
:1036300005C00E94239781110C94E82C88AD99ADA8
:10364000AAADBBAD80937F0290938002A0938102CC
:10365000B09382029701A801B701C8010E9470ECE3
:10366000882391F00E94239760E08FE695E00E9406
:103670008C610E94F3D68FE595E00E9495D604C038
:10368000E12CF12C00EC1FE79701A801B701C8015C
:103690000E9470EC811117C0B301A20188E895E087
:1036A0000E94C2D64CA95DA96EA97FA983E895E0C6
:1036B0000E94C2D6A701B8018EE795E00E94C2D64B
:1036C0008AE00E94DF3A0E94425D0E94835F0C9470
:1036D000E4288FE08093441A0C94E42880917E13B0
:1036E000882349F1893009F0A6C0AFE8AA2EA2E0EC
:1036F000BA2EB5E5EB2EBBE1FB2ED12C00E010E09D
:10370000D5018D915D010E94DED5882369F00E946C
:1037100059D5F7016083718382839383133011F449
:1037200001E002C0DD24D3941F5FF4E0EF0EF11C32
:10373000143031F775C07FE8272E72E0372EE9E8A4
:10374000EE2EEAE1FE2E25E53BE13DAB2CABFCE0A5
:10375000CF2EFAE1DF2E00E010E0D1018D911D01A6
:103760000E94DED5882309F44BC00E9459D52B0155
:103770003C01133049F0F6012081318142815381AF
:103780000E947DE92B013C01ACA9BDA92D913D9181
:103790004D915C91C301B2010E947DE94B015C0136
:1037A0002DEB37E346E855EB0E94DEEB87FD0AC0C0
:1037B0002DEB37E346E855E3C501B4010E9483E2EF
:1037C0001816F4F4133051F44092611B5092621BAE
:1037D0006092631B7092641B01E012C0A50194010A
:1037E000F70160817181828193810E947EE9D70116
:1037F0006D937D938D939C931397812F0E949DC50C
:103800001F5FB4E0EB0EF11CECA9FDA93496FDABF3
:10381000ECABF4E0CF0ED11C143009F09ECF05C004
:10382000DD2019F00E94415F06C0002321F081E6EF
:103830009BE10E949EC30E94835F0C94E4280E9437
:10384000B2B50C94E42880917F1390918013863751
:10385000910509F4DFC608F0CCC08D34910509F458
:10386000BBC308F058C08931910509F460C230F536
:103870008431910509F407C278F48131910509F486
:10388000EEC128F4029708F4B6C10C94BE28429702
:1038900009F443C50C94BE288631910509F428C269
:1038A00008F422C28731910509F42CC2489711F01F
:1038B0000C94BE280E94E5820C94E4288E31910578
:1038C00009F4A2C2A8F48B31910509F442C208F4AC
:1038D00032C28C31910509F48FC24D9711F00C94CE
:1038E000BE28809163178E7F809363170C94E42821
:1038F0008032910509F498C208F4BFC28B34910557
:1039000009F466C38C34910511F00C94BE280E9412
:10391000B6600C94E4288B36910509F420C408F0B5
:1039200043C08535910509F42EC548F582359105CA
:1039300009F4E5C4D0F48135910511F00C94BE284A
:103940000E94BA8D0E94CB600E94B5C00E94883947
:1039500068EE73E080E090E00E9471D660E083E55D
:1039600096E00E948C610C94E4288335910509F45B
:10397000CDC48435910509F4D0C40C94BE28883692
:10398000910509F42DC330F48C35910509F41EC559
:103990000C94BE288936910509F4A3C38A36910593
:1039A00009F4B5C30C94BE288037910509F43FC4CF
:1039B00080F48D36910509F436C308F433C48E368D
:1039C000910509F4D7C38F36910509F4E6C30C9429
:1039D000BE288237910509F483C508F432C48337C1
:1039E000910509F484C58537910509F402C60C9444
:1039F000BE288E3221E0920711F40C94E92608F0DB
:103A000062C08C3C910509F4FAC668F58B399105C2
:103A100009F44FC480F48837910509F438C608F4D6
:103A200033C68937910509F43AC68C38910509F4F3
:103A30002AC40C94BE28883C910509F437C648F482
:103A40008E3B910511F00C94BE280E9403810C94CA
:103A5000E428893C910509F48AC68B3C910509F458
:103A6000ACC60C94BE288A3D910511F40C943D25FA
:103A700080F48E3C910509F4DAC608F4CAC6833D89
:103A8000910509F421C7893D910509F4E3C70C9418
:103A9000BE288D3D910511F40C94A62538F48C3D7B
:103AA000910511F40C947F250C94BE28823241E0DC
:103AB000940711F40C94FC258D32914011F40C9470
:103AC00068260C94BE28863FA1E09A0711F40C9456
:103AD000982708F044C08A39E1E09E0709F4AEC394
:103AE00008F5803921E0920711F40C942D2748F451
:103AF0008F32914011F00C94BE280E943F7C0C94B0
:103B0000E428813951E0950711F40C94302782396B
:103B1000914011F00C94BE280E9423970E94835F6D
:103B20000C94E4288C3AB1E09B0711F40C943627EE
:103B300038F48D39914011F40C947C280C94BE28F3
:103B4000843F21E0920711F40C949527853F914022
:103B500011F00C94BE280E94DFCE0C94E4288B3523
:103B600042E0940711F40C94C227C0F4883FA1E00E
:103B70009A0711F40C94A42710F40C949B278C3012
:103B8000E2E09E0711F40C94B5278835924011F0BD
:103B90000C94BE280E94F3760C94E428873E23E020
:103BA000920711F40C946E28C8F4833543E094070F
:103BB00011F40C943D28803A934011F00C94BE28E7
:103BC00020917C1330917D139091631792609093B4
:103BD0006317C9010E94D2A40C94E428883EA3E094
:103BE0009A0711F40C949D28893E934011F40C948B
:103BF000A0280C94BE2880E50E94DED5882329F0F9
:103C00000E94A6766B017C0103C0C12CD12C7601E9
:103C100083E50E94DED5882361F00E9459D520E01B
:103C200030E04AE754E40E94E9E20E94F1EA6B01C5
:103C30007C010E94A4C080917C1390917D13009719
:103C400019F00E940D7C04C080E995E00E944A6250
:103C500040E0C701B6010E94D8410C94E42880914D
:103C6000781384FF02C00C943A2A80917A1387FF5C
:103C700002C00C943A2A80917B13837011F00C944B
:103C80003A2A0C94572A8091631783FF25C08BEB47
:103C900095E00E9495D68091631783FF17C08FE748
:103CA00097E10E9431578BE1EFE7F7E1DE011196D2
:103CB00001900D928A95E1F760E070E0CE010196E7
:103CC0000E94FAA5CE0101960E9403D68CEA95E0E7
:103CD0000E9495D60C94E4280E94F7D68CEC95E0CF
:103CE0000E9495D60C94E4280E9444A10C94E428E8
:103CF0000E948FA080916317877F806280936317F3
:103D00000C94E428E0917C13F0917D13808188234A
:103D100029F0803209F410823196F8CF60E080916A
:103D20007C1390917D130E941AA50C94E4280E94A4
:103D3000AB840C94E4288091631783FD02C00C943B
:103D4000E42883E50E94DED581110C94662A0C9448
:103D5000E42883E40E9490D5882319F180EE95E051
:103D60000E9495D68091C618882391F0BE016F5F9E
:103D70007F4F83EC98E10E94FD568E010F5F1F4F2D
:103D8000F80181918F01882339F00E94DF3AF8CF42
:103D900086ED95E00E9495D68AE00E94DF3A0C9469
:103DA000E4288091631782FF21C08FEE95E00E9486
:103DB00095D660915F17709160178091611790910F
:103DC00062174AE00E94E63A8FE20E94DF3A609171
:103DD0005B1770915C1780915D1790915E174AE0B8
:103DE0000E94E63A0E94E43B0C94E42881E096E0CD
:103DF0000E9495D60C94E42880917C1390917D13B9
:103E00000E94D2A40C94E4288091631783FD02C021
:103E10000C94E4280E949BB580917C1390917D13B3
:103E20000E94F7A30C94E4288091631782FD0E94FE
:103E3000A4C08091631783FD02C00C94E42860E065
:103E400080E50E94677B182F682F80917C139091EA
:103E50007D130E941AA583E50E94DED5882321F0F8
:103E60000E9449D50E94D7820E94A0A011110C94F3
:103E7000E4280E9492600C94E4280E9443607B0135
:103E80008C0120E831E541E050E00E94D9E8C90109
:103E90006DE671E00E9434E94B015C01C801B70195
:103EA00020E13EE040E050E00E94D9E8CA01B901BB
:103EB00028E130E040E050E00E94D9E8762E672EFD
:103EC000C62ED72E6CE3262E312C412C512CC80146
:103ED000B701A20191010E94D9E8F62EE72ECA018E
:103EE000B901A20191010E94D9E8CB018E010F5FB7
:103EF0001F4F8114910499F0EF92FF927F936F937B
:103F00006F927F92BF92AF929F928F9282E196E0E2
:103F10009F938F931F930F930E941BE213C0A114D2
:103F2000B104B1F0EF92FF927F936F936F927F9203
:103F3000BF92AF9286E196E09F938F931F930F936A
:103F40000E941BE20FB6F894DEBF0FBECDBF30C09B
:103F5000CD2879F0EF92FF927F936F936F927F92CB
:103F60008AE196E09F938F931F930F930E941BE229
:103F7000E9CF892B69F0EF92FF927F936F938EE1E7
:103F800096E09F938F931F930F930E941BE2DACFCB
:103F9000EF92FF9282E296E09F938F931F930F938D
:103FA0000E941BE20F900F900F900F900F900F90B8
:103FB00060E0C8010E94CB610E94F7D6B80186E29A
:103FC00096E00E94E0D68AE00E94DF3A0C94E42852
:103FD0000E9492600C94E4280E94CB600C94E42828
:103FE0008091431A83FF02C00C94E4280E94CA7691
:103FF000182F87FF02C00C94E42883E50E94DED5C9
:10400000882369F00E9459D50E94EAEADC01CB01BD
:10401000612F0E9456D661E080E00E949A8D0E9436
:1040200004D80C94E4288091431A83FF02C00C94B6
:10403000E4280E94CA76D82E87FF02C00C94E42898
:1040400083E50E94DED5C82E811107C082E50E945B
:10405000DED5811102C010E038C00E9459D50E94FF
:10406000EAEADC01CB016D2D0E9456D661E081E0C9
:104070000E949A8D0D2D0D2C000C110B3D2D47E14A
:104080003402C0011124DC01AF5AB54E7D011896EF
:104090006D917C911997072E000C880B990B0E944B
:1040A0008AE24B015C01F70144805580668077808D
:1040B000A30192010E94DEEB181614F40C94892AD5
:1040C000CC2011F40C946B2A11E00E9404D8112327
:1040D00011F40C94E4286C2D8D2D0E94CA890C9447
:1040E000E4280E94CA76182F87FD0AC082E49DE169
:1040F0000E9495D6812F0E9406898AE00E94DF3AAD
:104100002196FFAD2197F093810A0C94FA2C60E080
:1041100080E50E944B7B81110C94E42881E40E948D
:1041200090D5882341F0E091881AF0E0EB5BF54EE2
:104130006081062F02C00FEF10E083E50E94DED5FC
:10414000882349F00E9449D58B016F3F710519F012
:1041500010F00FEF10E00093451A0C94E42860E093
:1041600080E50E944B7B81110C94E4281092451A43
:104170000C94E4288EE40E94DED5882311F40C947C
:10418000E4280E9449D56093061470930714809325
:104190000814909309140C94E42883E50E9490D5A8
:1041A000882331F060E083E50E944B7B8093431AC3
:1041B0000E94F7D687E396E00E9495D68091431A35
:1041C000882369F156EFE52E59E0F52E00E010E066
:1041D00020E08091431A90E0A0E0B0E0002E04C0FF
:1041E000B695A795979587950A94D2F780FF0EC04C
:1041F000DD24D394D20E222319F08CE20E94DF3A00
:10420000F701859194910E9495D62D2D0F5F1F4F38
:1042100032E0E30EF11C05301105D9F6BDCD83E384
:1042200096E0B8CD1092460B10925B02CDC741E0EC
:1042300060E070E08EE396E00E9496D70E945A39C3
:10424000C3C783E50E94DED5882371F00E94B6764D
:10425000282F30E02D3331051CF480930002B4C7C1
:104260008CE380930002B0C70E94F7D64091000211
:1042700050E060E070E08CE496E00E94A4D68AE012
:104280000E94DF3AA1C78091431A83FD9DC783E551
:104290000E94DED5882309F497C70E9459D50E9451
:1042A000EAEACB010E94F58061E080E00E949A8DED
:1042B0008BC783E50E94DED5882309F485C70E9459
:1042C000B676182F90E0CD970CF01CE310937C0A83
:1042D0000E94F3D46B017C01212F30E0A8EEB3E003
:1042E0000E9425E9C60ED71EE81EF91EC092780A64
:1042F000D092790AE0927A0AF0927B0A65C780919F
:10430000441A8F7D80618093441A5EC78091441A5D
:104310008F7E80628093441A57C783E50E94DED562
:104320008823E9F00E94F3D460930D1270930E126B
:1043300080930F12909310120E9459D520E030E024
:104340004AE754E40E94E9E20E94F1EA6093010224
:1043500070930202809303029093040235C7809108
:10436000781384FF02C00C948C2A80917A1387FF03
:1043700002C00C948C2A80917B13837011F00C94F2
:104380008C2A0C94BD2A83E50E9490D5882309F4D9
:104390001BC70E94F3D460930D1270930E1280938A
:1043A0000F12909310120E9459D520E030E04AE796
:1043B00054E40E94E9E20E94F1EA60937D0A70935E
:1043C0007E0A80937F0A9093800AFEC60E94CA7676
:1043D00087FDFAC69091781394FD04C090917A13EA
:1043E00097FF0AC03FE8C32E32E0D32E42E1E42E0D
:1043F00042E1F42E10E009C090917B13937091F785
:10440000682F81E00E945C76DFC6D6018D916D0138
:104410000E94DED5882309F459C0133009F04FC03B
:104420000E9459D54B015C0120E030E040EA51E4A4
:104430000E9483E287FF3AC0A50194016091321285
:104440007091331280913412909135120E9478EA63
:104450002B013C019B01AC0160914212709143120F
:1044600080914412909145120E94E9E260934212B9
:104470007093431280934412909345126091840B81
:104480007091850B8091860B9091870B0E9488E23A
:10449000A30192010E94E9E20E94F1EA6093840B79
:1044A0007093850B8093860B9093870B80923212CA
:1044B00090923312A0923412B092351207C00E942B
:1044C00059D5F701648B758B868B978B1F5FF4E052
:1044D000EF0EF11C143009F098CF0E94D3C474C6BB
:1044E0000E94E1D282E497E10E94F5BF6DC685EBA0
:1044F00097E00E9495D660E085EA97E00E94369F9B
:1045000060E080E997E00E94369F61E089E897E0EB
:104510000E94369F61E08EE797E00E94369F61E03F
:104520008EE697E00E94369F60E085E697E00E9465
:10453000369F61E08BE597E00E94369F60E081E561
:1045400097E00E94369F60E08AE497E00E94369FE1
:1045500061E082E497E00E94369F60E084E397E0A8
:104560000E94369F60E086E297E00E94369F60E0FE
:1045700087E197E00E94369F60E089E097E00E9423
:10458000369F60E083EF96E00E94369F60E082EE07
:1045900096E00E94369F60E083ED96E00E94369F91
:1045A00061E08CEC96E00E94369F60E087EB96E03D
:1045B0000E94369F60E089EA96E00E94369F61E0A3
:1045C00086E996E00E94369F60E089E896E00E94C6
:1045D000369F61E084E896E00E94369F61E087E7BD
:1045E00096E00E94369F60E083E696E00E94369F48
:1045F000EBC580917C1390917D13009741F0DC0115
:104600002C91222321F060E00E94CB61DDC50E9445
:10461000B3D2DAC500917C1310917D1394E0F12C94
:1046200040E0915021F1F8018081282F2B7F213427
:1046300021F421812133D9F407C08035C1F481816F
:1046400080538A3048F013C0813421F0853421F43E
:1046500041E002C0FF24F39498012E5F3F4F89018F
:104660002F5F3F4FF80180818032C9F3DACF4111CB
:104670000E94F7D6FF2021F080E998E00E9495D6AD
:10468000C8010E94EA3BA0C50E9418609DC581E058
:1046900080937C1480937B140E94346095C51092A3
:1046A0007C1410927B140E9434608EC50E94CA76DE
:1046B000182F87FD89C50091871A84E40E94DED5F2
:1046C000882309F45DC70E9459D56B017C0120E065
:1046D00030E0A9010E9483E2882309F442C024E06B
:1046E0001202F0011124E158F54EC082D182E2821B
:1046F000F38220E030E0A90160917F1A7091801A66
:104700008091811A9091821A0E9483E281110CC0DB
:1047100080E090E0A0EEBFE380937F1A9093801A30
:10472000A093811AB093821A20E030E0A901609131
:10473000831A7091841A8091851A9091861A0E942A
:1047400083E281110CC080E090E0A0EEBFE3809393
:10475000831A9093841AA093851AB093861A01E065
:104760000FC780E08093871A0E94C7C02DC50E94A2
:10477000CA7687FD29C59FE8E92E92E0F92E02E16D
:1047800012E122E2C22E22E1D22ED7018D917D01CB
:104790000E9490D5882359F00E9459D50E94F1EAD1
:1047A000F80160837183828393830E945DC00C5FF4
:1047B0001F4FC016D10649F707C50E94CA7687FD6C
:1047C00003C50FE8E02E02E0F02E02E112E182E2E2
:1047D000C82E82E1D82ED7018D917D010E9490D5FF
:1047E000882339F00E9459D5F80164A375A386A3E4
:1047F00097A30C5F1F4FC016D10669F7E5C48091DF
:10480000791387FDC2C680917A138E7009F0BDC6F8
:1048100002C78091781381FD26C78091791381FDAD
:1048200022C780917A138C7009F01DC7CDC415E999
:10483000E12E1AE1F12E10E088E5810F0E9490D55B
:10484000882359F00E9459D5D7016D937D938D939C
:104850009C931397812F0E949DC51F5FB4E0EB0EC0
:10486000F11C133049F780917A1387FD55C7809169
:104870007B13837009F050C74091951A5091961A96
:104880006091971A7091981A81E59CE20E94C2D6B5
:104890004091991A50919A1A60919B1A70919C1AA2
:1048A00084E49DE20E94C2D640919D1A50919E1AC6
:1048B00060919F1A7091A01A88E89CE00E94C2D66D
:1048C0008AE00E94DF3A80C440900C1A50900D1A82
:1048D00060900E1A70900F1A2091260230912702D4
:1048E0004091280250912902C301B2010E947EE941
:1048F0006CAB7DAB8EAB9FAB8090101A9090111A71
:10490000A090121AB090131A20912A0230912B0213
:1049100040912C0250912D02C501B4010E947EE904
:1049200068AF79AF8AAF9BAFC090141AD090151AB8
:10493000E090161AF090171A20912E0230912F0253
:104940004091300250913102C701B6010E947EE9C8
:104950006CAF7DAF8EAF9FAF2091320230913302AA
:104960004091340250913502C301B2010E947EE9A8
:104970002B013C01209136023091370240913802E0
:1049800050913902C501B4010E947EE94B015C01DE
:1049900020913A0230913B0240913C0250913D02FD
:1049A000C701B6010E947EE96B017C010E94F7D627
:1049B00083ED98E00E9495D683E50E9490D58823E8
:1049C00021F00E94577B8093240280912402882347
:1049D00019F088E195E002C081EB97E00E9495D63E
:1049E0008BEC98E00E9495D64CA95DA96EA97FA991
:1049F0008DE19DE20E94C2D648AD59AD6AAD7BAD56
:104A000084E49DE20E94C2D64CAD5DAD6EAD7FAD3B
:104A100088E89CE00E94C2D68CE09DE10E9495D679
:104A200083EC98E00E9495D6B301A2018DE19DE24E
:104A30000E94C2D6B501A40184E49DE20E94C2D6C0
:104A4000B701A60188E89CE00E94C2D68AE00E94D5
:104A5000DF3ABAC38AE50E94DED5882351F00E946E
:104A600059D560937212709373128093741290935D
:104A7000751280E00E949776A7C30E94CA76182F0D
:104A800087FDA2C388E50E94DED5882361F00E94DD
:104A900059D52CE01202F0011124E65AFD4E608334
:104AA00071838283938389E50E94DED5882361F038
:104AB0000E9459D53CE01302F0011124E65AFD4E44
:104AC00064837583868397838AE50E94DED5882375
:104AD00061F00E9459D54CE01402F0011124E65A0D
:104AE000FD4E608771878287938780917A1387FD57
:104AF0006BC380917B13837009F066C310C683E596
:104B00000E94DED5882331F00E9449D570930A02B5
:104B1000609309028091781390917913A0917A1390
:104B2000B0917B13892B8A2B8B2B09F04DC360919D
:104B3000090270910A0283EE98E00E94D3D685E2C2
:104B40000E94DF3A8AE00E94DF3A3EC30E94CA76A2
:104B5000F82E87FD39C383E50E94DED50F2D0F2C7B
:104B6000000C110B882369F10E9449D5F801EE0F62
:104B7000FF1FE558FD4F71836083000F111F000F69
:104B8000111FF801E95EFD4F7F01072E000C880B15
:104B9000990B0E948AE22AE037ED43E25CE30E942F
:104BA000E9E2F801EB56F64E2081318142815381D2
:104BB0000E94E9E2D7016D937D938D939C931397A7
:104BC00003C30E94F7D685E40E94DF3A80E38F0D8D
:104BD0000E94DF3A000F111FF801E558FD4F608178
:104BE000718187EE98E00E94D3D685E20E94DF3A79
:104BF0008AE00E94DF3AE8C28AE50E94DED5811190
:104C000006C083E50E94DED5882309F44AC00E94CD
:104C100059D520E030E040E050EC0E9483E287FD6F
:104C2000BBC50E9459D520E030E040E050E40E942E
:104C3000DEEB18160CF4AAC50E9459D56B017C0155
:104C400084E00E94F65B81112CC020912E123091DD
:104C50002F124091301250913112C701B6010E94BB
:104C6000E9E20E94EAEA2091820A3091830A260F43
:104C7000371F3093830A2093820A20910B123091C0
:104C80000C12260F371F30930C1220930B12209119
:104C9000931930919419620F731F70939419609354
:104CA000931980917A1387FD7DC580917B13837062
:104CB00009F078C50E94F7D6609193197091941904
:104CC0008FEE98E00E94D3D68AE00E94DF3A7CC241
:104CD00060E085E40E944B7B823008F073C080E581
:104CE0000E9490D5882351F00E9459D560935C1A98
:104CF00070935D1A80935E1A90935F1A89E40E9404
:104D000090D5882381F00E9459D52CEA35EC47E2F2
:104D10005EE30E94E9E26093601A7093611A8093E7
:104D2000621A9093631A84E40E9490D5882381F0DC
:104D30000E9459D52CEA35EC47E25EE30E9478EAFE
:104D40006093641A7093651A8093661A9093671A39
:104D50000E94F7D640915C1A50915D1A60915E1ADC
:104D600070915F1A82E099E00E94C2D62CEA35EC7D
:104D700047E25EE36091601A7091611A8091621A55
:104D80009091631A0E9478EAAB01BC018EEF98E023
:104D90000E94C2D62CEA35EC47E25EE36091641AC9
:104DA0007091651A8091661A9091671A0E94E9E2E3
:104DB000AB01BC018AEF98E00E94C2D68AE00E9453
:104DC000DF3A02C20E94F3D68BE69AE10E9495D6A2
:104DD000FBC183E50E9490D5182F882371F00E94B3
:104DE00059D50E94EAEA7093200260931F0221E0E5
:104DF000672B09F020E02093421A80E50E9490D5AD
:104E0000882359F020911F0230912002232B11F0AA
:104E10000E94577B8093421AD7C11111D5C10E94BD
:104E2000F7D68FE199E00E9495D68091421A8823A7
:104E300019F086EE95E102C086E099E00E9495D6D1
:104E400060911F02709120028EE099E00E94D3D6FB
:104E50008AE099E00E9495D6B7C10E94A4C0B4C16F
:104E600081E00E94E3CC0E94835FAEC187E00E9494
:104E7000F4618111A9C106EF1AE2E5E5FBE1FDABA2
:104E8000ECAB9E012F5F3F4F19014DE1C42E4BE269
:104E9000D42E7901F8016591759185919491ACA911
:104EA000BDA98D909D90AD90BD90BDABACABA50163
:104EB00094010E947DE92B013C01F701608371831D
:104EC0008283938320E030E040EA51EC0E94DEEBE5
:104ED00087FD0AC020E030E040EA51E4C301B2019E
:104EE0000E9483E218162CF4F601849118160CF433
:104EF0005FC4D7018D909D90AD90BD907D0120E065
:104F000030E040EA51ECC501B4010E94DEEB87FDC0
:104F10005AC420E030E040EA51E4C501B4010E94E7
:104F200083E218160CF05BC44EC40E940EC74CC13D
:104F30000E9471CD49C161E083E50E94677B91E0E9
:104F400089270E94F5CE40C181E08093A9190E9473
:104F500098AE1092A919882309F436C10E94F7D699
:104F60008EE699E00E9495D62FC18091631782FF4B
:104F700004C080648093631727C183FF25C10E940A
:104F80009BB522C10E94CA76082F87FD1DC185E509
:104F90000E9490D58823B1F1E02E002E000CFF086E
:104FA0000E9459D54B015C0120E030E0A9010E942C
:104FB000DEEB87FF04C0B7FAB094B7F8B094C7012E
:104FC00023E0880F991F2A95E1F79C012655364E5C
:104FD0007901D9018D929D92AD92BC92139720E0F8
:104FE00030EC49E754E4C501B4010E94DEEB181629
:104FF0004CF480E090ECA9E7B4E4F701808391835E
:10500000A283B3838CE40E9490D5882309F4DCC08A
:10501000002E000C110B0E9459D56B017C0120E081
:1050200030E0A9010E94DEEB87FF04C0F7FAF0949C
:10503000F7F8F09493E0000F111F9A95E1F70655E9
:10504000164ED8011496CD92DD92ED92FC921797F0
:1050500020E030EC49E754E4C701B6010E94DEEBE2
:1050600018160CF0B1C080E090ECA9E7B4E4F801A8
:1050700084839583A683B783A7C080917A1387FD25
:10508000D7C380917B13837009F0D2C34091BA19C2
:105090005091BB196091BC197091BD1986EB99E0D4
:1050A0000E94C2D64091BE195091BF196091C0199B
:1050B0007091C11984E49DE20E94C2D64091C21948
:1050C0005091C3196091C4197091C51988E89CE08A
:1050D0000E94C2D68AE00E94DF3A76C081E08093C7
:1050E000881410920B1A60E083E50E94677B81119F
:1050F0006BC00E946E9668C083E50E9490D588239D
:1051000039F00E94577B8093C6190E94F3D55CC08A
:105110000E94F7D685EC99E00E9495D68091C61939
:10512000882319F088E195E002C081EB97E00E94A6
:1051300095D68AE00E94DF3A47C00E94137444C0AB
:105140000E9443606D3371058105910520F082EF67
:1051500099E00E94809F8EEE99E00E94809F0E94BD
:10516000EBD50E94EEA68AED99E00E9495D68AECD6
:105170009CE0909383148093821426C00E94B2B561
:1051800023C010917F130E94F3D460930D1270938B
:105190000E1280930F1290931012212F012E000CEB
:1051A000330B8091881A90E02817390729F060E0C6
:1051B00083E50E94677B01C081E0682F812F0E94F8
:1051C000D38602C00E94B2B52296FFAD2297F1119C
:1051D00002C00E945E9621962FAD21972093810AEE
:1051E00009C40E94A4C0109225020E94F3D46093C7
:1051F0000D1270930E1280930F12909310127090F4
:10520000881A61E080E00E94D3860E945B5D81E0A5
:1052100080937C140E9434608AE50E9490D5082F08
:105220008823A1F081E00E94F65BF82E82E00E94C4
:10523000F65B11E0811101C010E0F11009C088E5B2
:105240000E9490D5E82E811103C000C110E0F7CF75
:10525000112309F4F1C00113FDC0FF24F394EE24DF
:10526000E39411E082E50E94DED5882319F00E94C4
:1052700059D504C060E070E080EA90E46CA37DA39F
:105280008EA39FA320E030E0A9010E9483E288233F
:1052900059F0E11005C0F11003C0112309F4BDC09D
:1052A000CE0184960E9446D3EE2019F080E00E9441
:1052B000BDC5FF2019F081E00E94BDC5112309F48E
:1052C000ACC083E00E94F4618111A7C00E94415FDD
:1052D0002091991A30919A1A40919B1A50919C1AD8
:1052E00060E070E0CB010E947DE94B015C01209001
:1052F0005D1B30905E1B40905F1B5090601B2091A7
:10530000951A3091961A4091971A5091981A60E028
:1053100070E0CB010E947DE92091BA193091BB1950
:105320004091BC195091BD190E947DE96B017C012F
:10533000609376127093771280937812909379121B
:105340002091BE193091BF194091C0195091C119D7
:10535000C501B4010E947DE94B015C0160937A12A2
:1053600070937B1280937C1290937D122091C219CE
:105370003091C3194091C4195091C519C201B101AE
:105380000E947DE960937E1270937F128093801259
:105390009093811227E137EB41ED58EBC501B40141
:1053A0000E94DEEB87FD5AC027E030E048E453E47A
:1053B000C501B4010E9483E218160CF44FC027E126
:1053C00037EB41ED58EBC701B6010E94DEEB87FDDC
:1053D00045C027E030E048E453E4C701B6010E942D
:1053E00083E21816DCF11C8E1D8E1E8E1F8E88E047
:1053F000E6E7F2E1DE01119601900D928A95E1F760
:10540000AE01445E5F4FBE016B5F7F4FCE010196E0
:105410000E944B5E82E00E94BDC50E94415F809168
:105420007B1480937C140E94425D61E0872D0E9472
:10543000D3860E94835FC8CE11E089E50E9490D593
:10544000F82E811709F407CFE12E06C01123A9F326
:10545000F12E02C0F12EE12E102F04CF60E08EE479
:1054600095E00E948C610E94F7D68CE395E00E9443
:1054700095D6D3CF88E50E9490D581115F9889E5B4
:105480000E9490D581118A988AE50E9490D5882340
:1054900029F08091080181708093060185E40E94C3
:1054A00090D5882309F490CE0E9457398DCE60E0C4
:1054B00083EA95E00E948C615F988A988091080148
:1054C0008170809306010E9457397ECE0E9449D593
:1054D0000E94D78279CEA3019201C501B4010E9436
:1054E000DEEB1816B4F08AE698E19F938F930F5C79
:1054F0001F4F1F930F938AE09EE29F938F931F92FB
:105500000E9496DD0FB6F894DEBF0FBECDBF0C949F
:10551000642089E798E1E9CF0E94A4C088E50E9451
:1055200090D5882331F05F9A80917E148E7F80938E
:105530007E1489E50E9490D5882331F08A9A809163
:105540007E148D7F80937E148AE50E9490D58823F7
:1055500059F08091080180958170809306018091B7
:105560007E148B7F80937E1485E40E9490D58823DF
:1055700009F42ACE0E943B3927CE0E94B5C024CE22
:10558000602F83E50E94677BEDC883E50E94DED52E
:10559000882391F00E9459D5609346127093471268
:1055A000809348129093491260934E1270934F1259
:1055B000809350129093511280E50E94DED588238B
:1055C00051F00E9459D56093461270934712809310
:1055D00048129093491282E50E94DED5882351F04B
:1055E0000E9459D560934A1270934B1280934C12CB
:1055F00090934D1284E50E94DED5882309F4E4CD12
:105600000E9459D560934E1270934F12809350129E
:1056100090935112D9CD409146125091471260910A
:1056200048127091491284E998E00E94C2D64091D4
:105630004A1250914B1260914C1270914D1284E7B6
:105640009BE20E94C2D640914E1250914F1260913F
:105650005012709151128FE89DE20E94C2D68AE0EA
:105660000E94DF3AB1CD82E40E9490D5882351F0A8
:105670000E94A676609322127093231280932412C4
:105680009093251283E50E9490D5882351F00E94C3
:1056900059D5609352127093531280935412909381
:1056A000551284E50E9490D5882351F00E9459D567
:1056B0006093561270935712809358129093591218
:1056C0008AE40E9490D5882309F47ECD0E9459D5A2
:1056D0006B017C012AE037ED43E25CE30E94DEEBE4
:1056E00087FD13C02AE939E949E95EE3C701B6013C
:1056F0000E9483E218164CF0C092C719D092C819C4
:10570000E092C919F092CA195FCD0E94F3D684EADB
:1057100098E00E9495D658CD0E94835F55CD0E9497
:10572000F7D684E69BE20E9495D60AE512E182E76D
:10573000E82E82E1F82E80E20E94DF3AD8016D91D6
:105740007D918D919C9142E00E946F3B8CE20E9482
:10575000DF3AF801648175818681978142E00E9479
:105760006F3B8CE20E94DF3AD80118966D917D91D3
:105770008D919C911B9743E00E946F3B045F1F4FEC
:10578000E016F10611F40C94CC1ED5CFC12CD12C0F
:10579000E12C60E4F62E54CAC12CD12CE12C50EC43
:1057A000F52E4ECA82E50E9490D5811183CA0CCD98
:1057B000B7FAB094B7F8B094D7018D929D92AD929C
:1057C000BC92139796CB0E94F3D680E599E00E9495
:1057D00095D661E082E499E00E948C61F5CC0C5F83
:1057E0001F4FBFEFCB1ADB0AEBE202301E0709F0B6
:1057F00051CB35E9E32E3AE1F32E10E0F10181912E
:105800009191A191B1911F01F70181939193A1937E
:10581000B1937F01812F0E949DC51F5F133071F7E7
:105820000E94835F60E082E399E00E948C61CCCCAF
:10583000F091BA19FCAB8090BB197090BC196090C4
:10584000BD195090BE194090BF193090C0192090DA
:10585000C119C090C219D090C319E090C419F0903A
:10586000C51988E50E94DED5882361F10E9459D5CB
:105870005B018C0120E030E048E453EC0E94DEEB59
:1058800087FD0AC020E030E048E453E4B501C801D8
:105890000E9483E2181694F468EC70E083EA99E0C1
:1058A0000E94D3D668EC70E08EE999E00E94D3D6CE
:1058B00080E899E20E9495D610E005C0ACAA8B2C36
:1058C000702E612E11E089E50E94DED5882381F1DA
:1058D0000E9459D5962EA72EB82E092F20E030E031
:1058E00048E453EC0E94DEEB87FD0CC020E030E082
:1058F00048E453E4692D7A2D8B2D902F0E9483E28A
:10590000181694F468EC70E08BE899E00E94D3D606
:1059100068EC70E08EE999E00E94D3D680E899E2C5
:105920000E9495D610E004C0592C4A2C3B2C202E06
:105930008AE50E94DED5882339F10E9459D56B0192
:105940007C0120E030E040EA51EC0E94DEEB87FD74
:105950000AC020E030E040EA51E4C701B6010E94ED
:1059600083E218168CF46CEE7FEF89E799E00E94D1
:10597000D3D664E170E08EE999E00E94D3D680E846
:1059800099E20E9495D620CC112309F41DCC8CA954
:10599000982DA72DB62D8093BA199093BB19A0937B
:1059A000BC19B093BD19852D942DA32DB22D8093D4
:1059B000BE199093BF19A093C019B093C119C0929A
:1059C000C219D092C319E092C419F092C519FCCB48
:1059D00028AD39AD4AAD5BAD20937F023093800294
:1059E0004093810250938202E12CF12C00EC1FE7DE
:1059F0000C94321BCF5BDF4F0FB6F894DEBF0FBEA7
:105A0000CDBFDF91CF911F910F91FF90EF90DF906D
:105A1000CF90BF90AF909F908F907F906F905F904E
:105A20004F903F902F900895CF93DF93CDB7DEB77F
:105A3000C158D3400FB6F894DEBF0FBECDBF813042
:105A400009F002C685E0E9E3F6E0DE01A758BC4FA5
:105A500001900D928A95E1F721E040E2BE0167587E
:105A60007C4F80E090E50E947C7B88E0EAE3F7E0F1
:105A7000DE01AE5CBC4F01900D928A95E1F721E00A
:105A800040E2BE016E5C7C4F80E190E50E947C7B31
:105A900085E0EEE3F6E0DE01AD58BC4F01900D92DB
:105AA0008A95E1F721E040E2BE016D587C4F80E22B
:105AB00090E50E947C7B86E0E3E4F6E0DE01A959F4
:105AC000BC4F01900D928A95E1F721E040E2BE01C2
:105AD00069597C4F80E592E50E947C7B89E0E9E48E
